S011000073746F7077617463682E7372656336
S11300001DC037C036C035C034C033C04BC131C049
S113001030C0ECC02EC02DC02CC02BC02AC029C0BB
S113002028C027C026C030C032C034C036C038C053
S11300303AC03CC03EC040C042C044C011241FBEB0
S1130040CFE5D4E0DEBFCDBF10E0A0E6B0E0EEE344
S1130050F3E002C005900D92A236B107D9F720E073
S1130060A2E6B0E001C01D92AE36B207E1F775D04A
S113007064C1C6CF8B3060F590E08B30910520F5DC
S1130080FC01ED5EFF4F099483E082BB1DC08FE944
S113009082BB1AC085E282BB17C08DE082BB14C04C
S11300A089E982BB11C089E482BB0EC081E482BBB2
S11300B00BC08FE182BB08C081E082BB05C089E030
S11300C082BB02C08FEF82BB662321F09098089513
S11300D08DEF82BB0895CF93DF93FC01803127E23B
S11300E09207C0F5892B69F140E0C42FD0E09F014D
S11300F0ADECBCEC16D1969587959695879596951B
S113010087959C01220F331F880F991F880F991F11
S1130110880F991F820F931F9F01281B390BC65903
S1130120DF4F28834F5F9F01FCD0FC01F695E795D4
S1130130F695E795F695E7953097B9F6443010F0C3
S113014009C040E0E42FF0E0E659FF4F10824F5F12
S11301504430C0F3DF91CF91089583B7846083BFA7
S113016089B7816089BF12BE84B38F6084BB8EE07F
S113017085BB8FEF81BB82BB8EB5887F8EBD8AEF36
S113018090E09BBD8ABD89B7806189BF7894C4E63D
S113019011E0DBE0209165008091660090E0C29F51
S11301A0800D911D112497DFB2990AC01092690045
S11301B01092680010926700109266001092650019
S11301C0B19905C08EB5887F8EBD10936000B0993B
S11301D005C0DEBD109260001092640080E090E0E3
S11301E0FC013197F1F70197F1F7D4CF1F920F92E9
S11301F00FB60F9211242F933F934F935F936F93F6
S11302007F938F939F93AF93BF93EF93FF938091CB
S11302106300833019F41092630003C08F5F8093EE
S1130220630081E090E00090630002C0880F991F92
S11302300A94E2F7809585BB80916400882321F0BD
S113024060E08AE017DF08C0E0916300F0E0E6595F
S1130250FF4F808160E00EDF80916000882389F089
S1130260809162008F5F803119F08093620009C031
S11302701092620081E090916400911180E080937B
S11302806400FF91EF91BF91AF919F918F917F9106
S11302906F915F914F913F912F910F900FBE0F90EF
S11302A01F9018951F920F920FB60F9211242F933F
S11302B08F939F9380916800909169000196909329
S11302C06900809368008091680090916900883E7D
S11302D09340F9F4809167008F5F809367001092D8
S11302E0690010926800809167008C3339F4809122
S11302F066008F5F809366001092670080916600AD
S11303008C3339F4809165008F5F8093650010927F
S113031066009F918F912F910F900FBE0F901F90A9
S11303201895A29FB001B39FC001A39F01D0B29FB3
S1110330700D811D1124911D0895F894FFCFC6
S105033E0100B8
S9030000FC
